{
  "_format": "hh-sol-artifact-1",
  "contractName": "PinSave",
  "sourceName": "contracts/PinSave.sol",
  "abi": [
    {
      "inputs": [
        {
          "internalType": "string",
          "name": "_name",
          "type": "string"
        },
        {
          "internalType": "string",
          "name": "_symbol",
          "type": "string"
        },
        {
          "internalType": "address",
          "name": "_owner",
          "type": "address"
        }
      ],
      "stateMutability": "nonpayable",
      "type": "constructor"
    },
    {
      "inputs": [
        {
          "internalType": "address",
          "name": "sender",
          "type": "address"
        },
        {
          "internalType": "uint256",
          "name": "tokenId",
          "type": "uint256"
        },
        {
          "internalType": "address",
          "name": "owner",
          "type": "address"
        }
      ],
      "name": "ERC721IncorrectOwner",
      "type": "error"
    },
    {
      "inputs": [
        {
          "internalType": "address",
          "name": "operator",
          "type": "address"
        },
        {
          "internalType": "uint256",
          "name": "tokenId",
          "type": "uint256"
        }
      ],
      "name": "ERC721InsufficientApproval",
      "type": "error"
    },
    {
      "inputs": [
        {
          "internalType": "address",
          "name": "approver",
          "type": "address"
        }
      ],
      "name": "ERC721InvalidApprover",
      "type": "error"
    },
    {
      "inputs": [
        {
          "internalType": "address",
          "name": "operator",
          "type": "address"
        }
      ],
      "name": "ERC721InvalidOperator",
      "type": "error"
    },
    {
      "inputs": [
        {
          "internalType": "address",
          "name": "owner",
          "type": "address"
        }
      ],
      "name": "ERC721InvalidOwner",
      "type": "error"
    },
    {
      "inputs": [
        {
          "internalType": "address",
          "name": "receiver",
          "type": "address"
        }
      ],
      "name": "ERC721InvalidReceiver",
      "type": "error"
    },
    {
      "inputs": [
        {
          "internalType": "address",
          "name": "sender",
          "type": "address"
        }
      ],
      "name": "ERC721InvalidSender",
      "type": "error"
    },
    {
      "inputs": [
        {
          "internalType": "uint256",
          "name": "tokenId",
          "type": "uint256"
        }
      ],
      "name": "ERC721NonexistentToken",
      "type": "error"
    },
    {
      "anonymous": false,
      "inputs": [
        {
          "indexed": true,
          "internalType": "address",
          "name": "owner",
          "type": "address"
        },
        {
          "indexed": true,
          "internalType": "address",
          "name": "approved",
          "type": "address"
        },
        {
          "indexed": true,
          "internalType": "uint256",
          "name": "tokenId",
          "type": "uint256"
        }
      ],
      "name": "Approval",
      "type": "event"
    },
    {
      "anonymous": false,
      "inputs": [
        {
          "indexed": true,
          "internalType": "address",
          "name": "owner",
          "type": "address"
        },
        {
          "indexed": true,
          "internalType": "address",
          "name": "operator",
          "type": "address"
        },
        {
          "indexed": false,
          "internalType": "bool",
          "name": "approved",
          "type": "bool"
        }
      ],
      "name": "ApprovalForAll",
      "type": "event"
    },
    {
      "anonymous": false,
      "inputs": [
        {
          "indexed": true,
          "internalType": "address",
          "name": "from",
          "type": "address"
        },
        {
          "indexed": true,
          "internalType": "address",
          "name": "to",
          "type": "address"
        },
        {
          "indexed": true,
          "internalType": "uint256",
          "name": "tokenId",
          "type": "uint256"
        }
      ],
      "name": "Transfer",
      "type": "event"
    },
    {
      "inputs": [
        {
          "internalType": "address",
          "name": "to",
          "type": "address"
        },
        {
          "internalType": "uint256",
          "name": "tokenId",
          "type": "uint256"
        }
      ],
      "name": "approve",
      "outputs": [],
      "stateMutability": "nonpayable",
      "type": "function"
    },
    {
      "inputs": [
        {
          "internalType": "address",
          "name": "owner",
          "type": "address"
        }
      ],
      "name": "balanceOf",
      "outputs": [
        {
          "internalType": "uint256",
          "name": "",
          "type": "uint256"
        }
      ],
      "stateMutability": "view",
      "type": "function"
    },
    {
      "inputs": [
        {
          "internalType": "uint256",
          "name": "newFee",
          "type": "uint256"
        }
      ],
      "name": "changeFee",
      "outputs": [],
      "stateMutability": "nonpayable",
      "type": "function"
    },
    {
      "inputs": [
        {
          "internalType": "address",
          "name": "to",
          "type": "address"
        },
        {
          "internalType": "string[]",
          "name": "_cid",
          "type": "string[]"
        }
      ],
      "name": "createBatchPosts",
      "outputs": [],
      "stateMutability": "nonpayable",
      "type": "function"
    },
    {
      "inputs": [
        {
          "internalType": "address",
          "name": "receiver",
          "type": "address"
        },
        {
          "internalType": "string",
          "name": "_cid",
          "type": "string"
        }
      ],
      "name": "createPost",
      "outputs": [],
      "stateMutability": "payable",
      "type": "function"
    },
    {
      "inputs": [
        {
          "internalType": "uint256",
          "name": "tokenId",
          "type": "uint256"
        }
      ],
      "name": "getApproved",
      "outputs": [
        {
          "internalType": "address",
          "name": "",
          "type": "address"
        }
      ],
      "stateMutability": "view",
      "type": "function"
    },
    {
      "inputs": [],
      "name": "getContractBalance",
      "outputs": [
        {
          "internalType": "uint256",
          "name": "",
          "type": "uint256"
        }
      ],
      "stateMutability": "view",
      "type": "function"
    },
    {
      "inputs": [
        {
          "internalType": "uint256",
          "name": "id",
          "type": "uint256"
        }
      ],
      "name": "getPostAuthor",
      "outputs": [
        {
          "internalType": "address",
          "name": "",
          "type": "address"
        }
      ],
      "stateMutability": "view",
      "type": "function"
    },
    {
      "inputs": [
        {
          "internalType": "uint256",
          "name": "id",
          "type": "uint256"
        }
      ],
      "name": "getPostCid",
      "outputs": [
        {
          "internalType": "string",
          "name": "",
          "type": "string"
        }
      ],
      "stateMutability": "view",
      "type": "function"
    },
    {
      "inputs": [
        {
          "internalType": "uint256",
          "name": "id",
          "type": "uint256"
        }
      ],
      "name": "getPostOwner",
      "outputs": [
        {
          "internalType": "address",
          "name": "",
          "type": "address"
        }
      ],
      "stateMutability": "view",
      "type": "function"
    },
    {
      "inputs": [
        {
          "internalType": "address",
          "name": "owner",
          "type": "address"
        },
        {
          "internalType": "address",
          "name": "operator",
          "type": "address"
        }
      ],
      "name": "isApprovedForAll",
      "outputs": [
        {
          "internalType": "bool",
          "name": "",
          "type": "bool"
        }
      ],
      "stateMutability": "view",
      "type": "function"
    },
    {
      "inputs": [],
      "name": "mintingFee",
      "outputs": [
        {
          "internalType": "uint256",
          "name": "",
          "type": "uint256"
        }
      ],
      "stateMutability": "view",
      "type": "function"
    },
    {
      "inputs": [],
      "name": "name",
      "outputs": [
        {
          "internalType": "string",
          "name": "",
          "type": "string"
        }
      ],
      "stateMutability": "view",
      "type": "function"
    },
    {
      "inputs": [],
      "name": "owner",
      "outputs": [
        {
          "internalType": "address",
          "name": "",
          "type": "address"
        }
      ],
      "stateMutability": "view",
      "type": "function"
    },
    {
      "inputs": [
        {
          "internalType": "uint256",
          "name": "tokenId",
          "type": "uint256"
        }
      ],
      "name": "ownerOf",
      "outputs": [
        {
          "internalType": "address",
          "name": "",
          "type": "address"
        }
      ],
      "stateMutability": "view",
      "type": "function"
    },
    {
      "inputs": [
        {
          "internalType": "uint256",
          "name": "",
          "type": "uint256"
        }
      ],
      "name": "postByTokenId",
      "outputs": [
        {
          "internalType": "string",
          "name": "cid",
          "type": "string"
        },
        {
          "internalType": "address",
          "name": "author",
          "type": "address"
        }
      ],
      "stateMutability": "view",
      "type": "function"
    },
    {
      "inputs": [
        {
          "internalType": "address",
          "name": "from",
          "type": "address"
        },
        {
          "internalType": "address",
          "name": "to",
          "type": "address"
        },
        {
          "internalType": "uint256",
          "name": "tokenId",
          "type": "uint256"
        }
      ],
      "name": "safeTransferFrom",
      "outputs": [],
      "stateMutability": "nonpayable",
      "type": "function"
    },
    {
      "inputs": [
        {
          "internalType": "address",
          "name": "from",
          "type": "address"
        },
        {
          "internalType": "address",
          "name": "to",
          "type": "address"
        },
        {
          "internalType": "uint256",
          "name": "tokenId",
          "type": "uint256"
        },
        {
          "internalType": "bytes",
          "name": "data",
          "type": "bytes"
        }
      ],
      "name": "safeTransferFrom",
      "outputs": [],
      "stateMutability": "nonpayable",
      "type": "function"
    },
    {
      "inputs": [
        {
          "internalType": "address",
          "name": "operator",
          "type": "address"
        },
        {
          "internalType": "bool",
          "name": "approved",
          "type": "bool"
        }
      ],
      "name": "setApprovalForAll",
      "outputs": [],
      "stateMutability": "nonpayable",
      "type": "function"
    },
    {
      "inputs": [
        {
          "internalType": "address",
          "name": "_owner",
          "type": "address"
        }
      ],
      "name": "setOwner",
      "outputs": [],
      "stateMutability": "nonpayable",
      "type": "function"
    },
    {
      "inputs": [
        {
          "internalType": "bytes4",
          "name": "interfaceId",
          "type": "bytes4"
        }
      ],
      "name": "supportsInterface",
      "outputs": [
        {
          "internalType": "bool",
          "name": "",
          "type": "bool"
        }
      ],
      "stateMutability": "view",
      "type": "function"
    },
    {
      "inputs": [],
      "name": "symbol",
      "outputs": [
        {
          "internalType": "string",
          "name": "",
          "type": "string"
        }
      ],
      "stateMutability": "view",
      "type": "function"
    },
    {
      "inputs": [
        {
          "internalType": "uint256",
          "name": "tokenId",
          "type": "uint256"
        }
      ],
      "name": "tokenURI",
      "outputs": [
        {
          "internalType": "string",
          "name": "",
          "type": "string"
        }
      ],
      "stateMutability": "view",
      "type": "function"
    },
    {
      "inputs": [],
      "name": "totalSupply",
      "outputs": [
        {
          "internalType": "uint256",
          "name": "",
          "type": "uint256"
        }
      ],
      "stateMutability": "view",
      "type": "function"
    },
    {
      "inputs": [
        {
          "internalType": "address",
          "name": "from",
          "type": "address"
        },
        {
          "internalType": "address",
          "name": "to",
          "type": "address"
        },
        {
          "internalType": "uint256",
          "name": "tokenId",
          "type": "uint256"
        }
      ],
      "name": "transferFrom",
      "outputs": [],
      "stateMutability": "nonpayable",
      "type": "function"
    },
    {
      "inputs": [],
      "name": "withdrawFees",
      "outputs": [],
      "stateMutability": "nonpayable",
      "type": "function"
    }
  ],
  "bytecode": "0x60806040523480156200001157600080fd5b50604051620037d1380380620037d18339818101604052810190620000379190620002a1565b828281600090816200004a919062000586565b5080600190816200005c919062000586565b50505080600660016101000a81548173ffffffffffffffffffffffffffffffffffffffff021916908373ffffffffffffffffffffffffffffffffffffffff1602179055505050506200066d565b6000604051905090565b600080fd5b600080fd5b600080fd5b600080fd5b6000601f19601f8301169050919050565b7f4e487b7100000000000000000000000000000000000000000000000000000000600052604160045260246000fd5b6200011282620000c7565b810181811067ffffffffffffffff82111715620001345762000133620000d8565b5b80604052505050565b600062000149620000a9565b905062000157828262000107565b919050565b600067ffffffffffffffff8211156200017a5762000179620000d8565b5b6200018582620000c7565b9050602081019050919050565b60005b83811015620001b257808201518184015260208101905062000195565b60008484015250505050565b6000620001d5620001cf846200015c565b6200013d565b905082815260208101848484011115620001f457620001f3620000c2565b5b6200020184828562000192565b509392505050565b600082601f830112620002215762000220620000bd565b5b815162000233848260208601620001be565b91505092915050565b600073ffffffffffffffffffffffffffffffffffffffff82169050919050565b600062000269826200023c565b9050919050565b6200027b816200025c565b81146200028757600080fd5b50565b6000815190506200029b8162000270565b92915050565b600080600060608486031215620002bd57620002bc620000b3565b5b600084015167ffffffffffffffff811115620002de57620002dd620000b8565b5b620002ec8682870162000209565b935050602084015167ffffffffffffffff81111562000310576200030f620000b8565b5b6200031e8682870162000209565b925050604062000331868287016200028a565b9150509250925092565b600081519050919050565b7f4e487b7100000000000000000000000000000000000000000000000000000000600052602260045260246000fd5b600060028204905060018216806200038e57607f821691505b602082108103620003a457620003a362000346565b5b50919050565b60008190508160005260206000209050919050565b60006020601f8301049050919050565b600082821b905092915050565b6000600883026200040e7fffffffffffffffffffffffffffffffffffffffffffffffffffffffffffffffff82620003cf565b6200041a8683620003cf565b95508019841693508086168417925050509392505050565b6000819050919050565b6000819050919050565b600062000467620004616200045b8462000432565b6200043c565b62000432565b9050919050565b6000819050919050565b620004838362000446565b6200049b62000492826200046e565b848454620003dc565b825550505050565b600090565b620004b2620004a3565b620004bf81848462000478565b505050565b5b81811015620004e757620004db600082620004a8565b600181019050620004c5565b5050565b601f82111562000536576200050081620003aa565b6200050b84620003bf565b810160208510156200051b578190505b620005336200052a85620003bf565b830182620004c4565b50505b505050565b600082821c905092915050565b60006200055b600019846008026200053b565b1980831691505092915050565b600062000576838362000548565b9150826002028217905092915050565b62000591826200033b565b67ffffffffffffffff811115620005ad57620005ac620000d8565b5b620005b9825462000375565b620005c6828285620004eb565b600060209050601f831160018114620005fe5760008415620005e9578287015190505b620005f5858262000568565b86555062000665565b601f1984166200060e86620003aa565b60005b82811015620006385784890151825560018201915060208501945060208101905062000611565b8683101562000658578489015162000654601f89168262000548565b8355505b6001600288020188555050505b505050505050565b613154806200067d6000396000f3fe6080604052600436106101815760003560e01c80635a64ad95116100d157806395d89b411161008a578063b88d4fde11610064578063b88d4fde146105a7578063c87b56dd146105d0578063e985e9c51461060d578063fe7ec5a51461064a57610181565b806395d89b4114610516578063a22cb46514610541578063a56581df1461056a57610181565b80635a64ad95146103f25780636352211e1461041d5780636a1db1bf1461045a5780636f9fb98a1461048357806370a08231146104ae5780638da5cb5b146104eb57610181565b806313af40351161013e57806323b872dd1161011857806323b872dd1461034c57806342842e0e1461037557806345c146711461039e578063476343ee146103db57610181565b806313af4035146102ba57806316ebbe04146102e357806318160ddd1461032157610181565b806301dbd0f21461018657806301ffc9a7146101af57806306fdde03146101ec578063081812fc14610217578063085f441f14610254578063095ea7b314610291575b600080fd5b34801561019257600080fd5b506101ad60048036038101906101a891906122a9565b610666565b005b3480156101bb57600080fd5b506101d660048036038101906101d1919061235d565b6106ab565b6040516101e391906123a5565b60405180910390f35b3480156101f857600080fd5b5061020161078d565b60405161020e919061243f565b60405180910390f35b34801561022357600080fd5b5061023e60048036038101906102399190612497565b61081f565b60405161024b91906124d3565b60405180910390f35b34801561026057600080fd5b5061027b60048036038101906102769190612497565b61083b565b60405161028891906124d3565b60405180910390f35b34801561029d57600080fd5b506102b860048036038101906102b391906124ee565b61084d565b005b3480156102c657600080fd5b506102e160048036038101906102dc919061252e565b610863565b005b3480156102ef57600080fd5b5061030a60048036038101906103059190612497565b610937565b60405161031892919061255b565b60405180910390f35b34801561032d57600080fd5b50610336610a03565b604051610343919061259a565b60405180910390f35b34801561035857600080fd5b50610373600480360381019061036e91906125b5565b610a09565b005b34801561038157600080fd5b5061039c600480360381019061039791906125b5565b610b0b565b005b3480156103aa57600080fd5b506103c560048036038101906103c09190612497565b610b2b565b6040516103d291906124d3565b60405180910390f35b3480156103e757600080fd5b506103f0610b77565b005b3480156103fe57600080fd5b50610407610cde565b604051610414919061259a565b60405180910390f35b34801561042957600080fd5b50610444600480360381019061043f9190612497565b610ce4565b60405161045191906124d3565b60405180910390f35b34801561046657600080fd5b50610481600480360381019061047c9190612497565b610cf6565b005b34801561048f57600080fd5b50610498610d90565b6040516104a5919061259a565b60405180910390f35b3480156104ba57600080fd5b506104d560048036038101906104d0919061252e565b610d98565b6040516104e2919061259a565b60405180910390f35b3480156104f757600080fd5b50610500610e52565b60405161050d91906124d3565b60405180910390f35b34801561052257600080fd5b5061052b610e78565b604051610538919061243f565b60405180910390f35b34801561054d57600080fd5b5061056860048036038101906105639190612634565b610f0a565b005b34801561057657600080fd5b50610591600480360381019061058c9190612497565b610f20565b60405161059e919061243f565b60405180910390f35b3480156105b357600080fd5b506105ce60048036038101906105c99190612715565b610fd4565b005b3480156105dc57600080fd5b506105f760048036038101906105f29190612497565b610ff9565b604051610604919061243f565b60405180910390f35b34801561061957600080fd5b50610634600480360381019061062f9190612798565b611062565b60405161064191906123a5565b60405180910390f35b610664600480360381019061065f91906127d8565b6110f6565b005b60008151905060005b8181146106a55761069a8484838151811061068d5761068c612834565b5b60200260200101516110f6565b80600101905061066f565b50505050565b60007f80ac58cd000000000000000000000000000000000000000000000000000000007bffffffffffffffffffffffffffffffffffffffffffffffffffffffff1916827bffffffffffffffffffffffffffffffffffffffffffffffffffffffff1916148061077657507f5b5e139f000000000000000000000000000000000000000000000000000000007bffffffffffffffffffffffffffffffffffffffffffffffffffffffff1916827bffffffffffffffffffffffffffffffffffffffffffffffffffffffff1916145b806107865750610785826112d0565b5b9050919050565b60606000805461079c90612892565b80601f01602080910402602001604051908101604052809291908181526020018280546107c890612892565b80156108155780601f106107ea57610100808354040283529160200191610815565b820191906000526020600020905b8154815290600101906020018083116107f857829003601f168201915b5050505050905090565b600061082a8261133a565b50610834826113c2565b9050919050565b600061084682610ce4565b9050919050565b61085f828261085a6113ff565b611407565b5050565b600660019054906101000a900473ffffffffffffffffffffffffffffffffffffffff1673ffffffffffffffffffffffffffffffffffffffff163373ffffffffffffffffffffffffffffffffffffffff16146108f3576040517f08c379a00000000000000000000000000000000000000000000000000000000081526004016108ea9061290f565b60405180910390fd5b80600660016101000a81548173ffffffffffffffffffffffffffffffffffffffff021916908373ffffffffffffffffffffffffffffffffffffffff16021790555050565b600b60205280600052604060002060009150905080600001805461095a90612892565b80601f016020809104026020016040519081016040528092919081815260200182805461098690612892565b80156109d35780601f106109a8576101008083540402835291602001916109d3565b820191906000526020600020905b8154815290600101906020018083116109b657829003601f168201915b5050505050908060010160009054906101000a900473ffffffffffffffffffffffffffffffffffffffff16905082565b600a5481565b600073ffffffffffffffffffffffffffffffffffffffff168273ffffffffffffffffffffffffffffffffffffffff1603610a7b5760006040517f64a0ae92000000000000000000000000000000000000000000000000000000008152600401610a7291906124d3565b60405180910390fd5b6000610a8f8383610a8a6113ff565b611419565b90508373ffffffffffffffffffffffffffffffffffffffff168173ffffffffffffffffffffffffffffffffffffffff1614610b05578382826040517f64283d7b000000000000000000000000000000000000000000000000000000008152600401610afc9392919061292f565b60405180910390fd5b50505050565b610b2683838360405180602001604052806000815250610fd4565b505050565b6000600b6000600184610b3e9190612995565b815260200190815260200160002060010160009054906101000a900473ffffffffffffffffffffffffffffffffffffffff169050919050565b600660019054906101000a900473ffffffffffffffffffffffffffffffffffffffff1673ffffffffffffffffffffffffffffffffffffffff163373ffffffffffffffffffffffffffffffffffffffff1614610c07576040517f08c379a0000000000000000000000000000000000000000000000000000000008152600401610bfe90612a15565b60405180910390fd5b60004790506000600660019054906101000a900473ffffffffffffffffffffffffffffffffffffffff1673ffffffffffffffffffffffffffffffffffffffff1682604051610c5490612a66565b60006040518083038185875af1925050503d8060008114610c91576040519150601f19603f3d011682016040523d82523d6000602084013e610c96565b606091505b5050905080610cda576040517f08c379a0000000000000000000000000000000000000000000000000000000008152600401610cd190612ac7565b60405180910390fd5b5050565b60075481565b6000610cef8261133a565b9050919050565b600660019054906101000a900473ffffffffffffffffffffffffffffffffffffffff1673ffffffffffffffffffffffffffffffffffffffff163373ffffffffffffffffffffffffffffffffffffffff1614610d86576040517f08c379a0000000000000000000000000000000000000000000000000000000008152600401610d7d9061290f565b60405180910390fd5b8060078190555050565b600047905090565b60008073ffffffffffffffffffffffffffffffffffffffff168273ffffffffffffffffffffffffffffffffffffffff1603610e0b5760006040517f89c62b64000000000000000000000000000000000000000000000000000000008152600401610e0291906124d3565b60405180910390fd5b600360008373ffffffffffffffffffffffffffffffffffffffff1673ffffffffffffffffffffffffffffffffffffffff168152602001908152602001600020549050919050565b600660019054906101000a900473ffffffffffffffffffffffffffffffffffffffff1681565b606060018054610e8790612892565b80601f0160208091040260200160405190810160405280929190818152602001828054610eb390612892565b8015610f005780601f10610ed557610100808354040283529160200191610f00565b820191906000526020600020905b815481529060010190602001808311610ee357829003601f168201915b5050505050905090565b610f1c610f156113ff565b8383611633565b5050565b6060600b6000600184610f339190612995565b81526020019081526020016000206000018054610f4f90612892565b80601f0160208091040260200160405190810160405280929190818152602001828054610f7b90612892565b8015610fc85780601f10610f9d57610100808354040283529160200191610fc8565b820191906000526020600020905b815481529060010190602001808311610fab57829003601f168201915b50505050509050919050565b610fdf848484610a09565b610ff3610fea6113ff565b858585856117a2565b50505050565b60606110048261133a565b50600061100f611953565b9050600081511161102f576040518060200160405280600081525061105a565b806110398461196a565b60405160200161104a929190612b23565b6040516020818303038152906040525b915050919050565b6000600560008473ffffffffffffffffffffffffffffffffffffffff1673ffffffffffffffffffffffffffffffffffffffff16815260200190815260200160002060008373ffffffffffffffffffffffffffffffffffffffff1673ffffffffffffffffffffffffffffffffffffffff16815260200190815260200160002060009054906101000a900460ff16905092915050565b600660009054906101000a900460ff1615611146576040517f08c379a000000000000000000000000000000000000000000000000000000000815260040161113d90612b93565b60405180910390fd5b6001600660006101000a81548160ff0219169083151502179055506007543410156111a6576040517f08c379a000000000000000000000000000000000000000000000000000000000815260040161119d90612bff565b60405180910390fd5b80600860000190816111b89190612dcb565b5033600860010160006101000a81548173ffffffffffffffffffffffffffffffffffffffff021916908373ffffffffffffffffffffffffffffffffffffffff1602179055506008600b6000600a548152602001908152602001600020600082018160000190816112289190612eb3565b506001820160009054906101000a900473ffffffffffffffffffffffffffffffffffffffff168160010160006101000a81548173ffffffffffffffffffffffffffffffffffffffff021916908373ffffffffffffffffffffffffffffffffffffffff1602179055509050506112b182600a600081546112a690612f9b565b919050819055611a38565b6000600660006101000a81548160ff0219169083151502179055505050565b60007f01ffc9a7000000000000000000000000000000000000000000000000000000007bffffffffffffffffffffffffffffffffffffffffffffffffffffffff1916827bffffffffffffffffffffffffffffffffffffffffffffffffffffffff1916149050919050565b60008061134683611b31565b9050600073ffffffffffffffffffffffffffffffffffffffff168173ffffffffffffffffffffffffffffffffffffffff16036113b957826040517f7e2732890000000000000000000000000000000000000000000000000000000081526004016113b0919061259a565b60405180910390fd5b80915050919050565b60006004600083815260200190815260200160002060009054906101000a900473ffffffffffffffffffffffffffffffffffffffff169050919050565b600033905090565b6114148383836001611b6e565b505050565b60008061142584611b31565b9050600073ffffffffffffffffffffffffffffffffffffffff168373ffffffffffffffffffffffffffffffffffffffff161461146757611466818486611d33565b5b600073ffffffffffffffffffffffffffffffffffffffff168173ffffffffffffffffffffffffffffffffffffffff16146114f8576114a9600085600080611b6e565b6001600360008373ffffffffffffffffffffffffffffffffffffffff1673ffffffffffffffffffffffffffffffffffffffff168152602001908152602001600020600082825403925050819055505b600073ffffffffffffffffffffffffffffffffffffffff168573ffffffffffffffffffffffffffffffffffffffff161461157b576001600360008773ffffffffffffffffffffffffffffffffffffffff1673ffffffffffffffffffffffffffffffffffffffff168152602001908152602001600020600082825401925050819055505b846002600086815260200190815260200160002060006101000a81548173ffffffffffffffffffffffffffffffffffffffff021916908373ffffffffffffffffffffffffffffffffffffffff160217905550838573ffffffffffffffffffffffffffffffffffffffff168273ffffffffffffffffffffffffffffffffffffffff167fddf252ad1be2c89b69c2b068fc378daa952ba7f163c4a11628f55a4df523b3ef60405160405180910390a4809150509392505050565b600073ffffffffffffffffffffffffffffffffffffffff168273ffffffffffffffffffffffffffffffffffffffff16036116a457816040517f5b08ba1800000000000000000000000000000000000000000000000000000000815260040161169b91906124d3565b60405180910390fd5b80600560008573ffffffffffffffffffffffffffffffffffffffff1673ffffffffffffffffffffffffffffffffffffffff16815260200190815260200160002060008473ffffffffffffffffffffffffffffffffffffffff1673ffffffffffffffffffffffffffffffffffffffff16815260200190815260200160002060006101000a81548160ff0219169083151502179055508173ffffffffffffffffffffffffffffffffffffffff168373ffffffffffffffffffffffffffffffffffffffff167f17307eab39ab6107e8899845ad3d59bd9653f200f220920489ca2b5937696c318360405161179591906123a5565b60405180910390a3505050565b60008373ffffffffffffffffffffffffffffffffffffffff163b111561194c578273ffffffffffffffffffffffffffffffffffffffff1663150b7a02868685856040518563ffffffff1660e01b81526004016118019493929190613038565b6020604051808303816000875af192505050801561183d57506040513d601f19601f8201168201806040525081019061183a9190613099565b60015b6118c1573d806000811461186d576040519150601f19603f3d011682016040523d82523d6000602084013e611872565b606091505b5060008151036118b957836040517f64a0ae920000000000000000000000000000000000000000000000000000000081526004016118b091906124d3565b60405180910390fd5b805181602001fd5b63150b7a0260e01b7bffffffffffffffffffffffffffffffffffffffffffffffffffffffff1916817bffffffffffffffffffffffffffffffffffffffffffffffffffffffff19161461194a57836040517f64a0ae9200000000000000000000000000000000000000000000000000000000815260040161194191906124d3565b60405180910390fd5b505b5050505050565b606060405180602001604052806000815250905090565b60606000600161197984611df7565b01905060008167ffffffffffffffff81111561199857611997612093565b5b6040519080825280601f01601f1916602001820160405280156119ca5781602001600182028036833780820191505090505b509050600082602001820190505b600115611a2d578080600190039150507f3031323334353637383961626364656600000000000000000000000000000000600a86061a8153600a8581611a2157611a206130c6565b5b049450600085036119d8575b819350505050919050565b600073ffffffffffffffffffffffffffffffffffffffff168273ffffffffffffffffffffffffffffffffffffffff1603611aaa5760006040517f64a0ae92000000000000000000000000000000000000000000000000000000008152600401611aa191906124d3565b60405180910390fd5b6000611ab883836000611419565b9050600073ffffffffffffffffffffffffffffffffffffffff168173ffffffffffffffffffffffffffffffffffffffff1614611b2c5760006040517f73c6ac6e000000000000000000000000000000000000000000000000000000008152600401611b2391906124d3565b60405180910390fd5b505050565b60006002600083815260200190815260200160002060009054906101000a900473ffffffffffffffffffffffffffffffffffffffff169050919050565b8080611ba75750600073ffffffffffffffffffffffffffffffffffffffff168273ffffffffffffffffffffffffffffffffffffffff1614155b15611cdb576000611bb78461133a565b9050600073ffffffffffffffffffffffffffffffffffffffff168373ffffffffffffffffffffffffffffffffffffffff1614158015611c2257508273ffffffffffffffffffffffffffffffffffffffff168173ffffffffffffffffffffffffffffffffffffffff1614155b8015611c355750611c338184611062565b155b15611c7757826040517fa9fbf51f000000000000000000000000000000000000000000000000000000008152600401611c6e91906124d3565b60405180910390fd5b8115611cd957838573ffffffffffffffffffffffffffffffffffffffff168273ffffffffffffffffffffffffffffffffffffffff167f8c5be1e5ebec7d5bd14f71427d1e84f3dd0314c0f7b2291e5b200ac8c7c3b92560405160405180910390a45b505b836004600085815260200190815260200160002060006101000a81548173ffffffffffffffffffffffffffffffffffffffff021916908373ffffffffffffffffffffffffffffffffffffffff16021790555050505050565b611d3e838383611f4a565b611df257600073ffffffffffffffffffffffffffffffffffffffff168373ffffffffffffffffffffffffffffffffffffffff1603611db357806040517f7e273289000000000000000000000000000000000000000000000000000000008152600401611daa919061259a565b60405180910390fd5b81816040517f177e802f000000000000000000000000000000000000000000000000000000008152600401611de99291906130f5565b60405180910390fd5b505050565b600080600090507a184f03e93ff9f4daa797ed6e38ed64bf6a1f0100000000000000008310611e55577a184f03e93ff9f4daa797ed6e38ed64bf6a1f0100000000000000008381611e4b57611e4a6130c6565b5b0492506040810190505b6d04ee2d6d415b85acef81000000008310611e92576d04ee2d6d415b85acef81000000008381611e8857611e876130c6565b5b0492506020810190505b662386f26fc100008310611ec157662386f26fc100008381611eb757611eb66130c6565b5b0492506010810190505b6305f5e1008310611eea576305f5e1008381611ee057611edf6130c6565b5b0492506008810190505b6127108310611f0f576127108381611f0557611f046130c6565b5b0492506004810190505b60648310611f325760648381611f2857611f276130c6565b5b0492506002810190505b600a8310611f41576001810190505b80915050919050565b60008073ffffffffffffffffffffffffffffffffffffffff168373ffffffffffffffffffffffffffffffffffffffff161415801561200257508273ffffffffffffffffffffffffffffffffffffffff168473ffffffffffffffffffffffffffffffffffffffff161480611fc35750611fc28484611062565b5b8061200157508273ffffffffffffffffffffffffffffffffffffffff16611fe9836113c2565b73ffffffffffffffffffffffffffffffffffffffff16145b5b90509392505050565b6000604051905090565b600080fd5b600080fd5b600073ffffffffffffffffffffffffffffffffffffffff82169050919050565b600061204a8261201f565b9050919050565b61205a8161203f565b811461206557600080fd5b50565b60008135905061207781612051565b92915050565b600080fd5b6000601f19601f8301169050919050565b7f4e487b7100000000000000000000000000000000000000000000000000000000600052604160045260246000fd5b6120cb82612082565b810181811067ffffffffffffffff821117156120ea576120e9612093565b5b80604052505050565b60006120fd61200b565b905061210982826120c2565b919050565b600067ffffffffffffffff82111561212957612128612093565b5b602082029050602081019050919050565b600080fd5b600080fd5b600067ffffffffffffffff82111561215f5761215e612093565b5b61216882612082565b9050602081019050919050565b82818337600083830152505050565b600061219761219284612144565b6120f3565b9050828152602081018484840111156121b3576121b261213f565b5b6121be848285612175565b509392505050565b600082601f8301126121db576121da61207d565b5b81356121eb848260208601612184565b91505092915050565b60006122076122028461210e565b6120f3565b9050808382526020820190506020840283018581111561222a5761222961213a565b5b835b8181101561227157803567ffffffffffffffff81111561224f5761224e61207d565b5b80860161225c89826121c6565b8552602085019450505060208101905061222c565b5050509392505050565b600082601f8301126122905761228f61207d565b5b81356122a08482602086016121f4565b91505092915050565b600080604083850312156122c0576122bf612015565b5b60006122ce85828601612068565b925050602083013567ffffffffffffffff8111156122ef576122ee61201a565b5b6122fb8582860161227b565b9150509250929050565b60007fffffffff0000000000000000000000000000000000000000000000000000000082169050919050565b61233a81612305565b811461234557600080fd5b50565b60008135905061235781612331565b92915050565b60006020828403121561237357612372612015565b5b600061238184828501612348565b91505092915050565b60008115159050919050565b61239f8161238a565b82525050565b60006020820190506123ba6000830184612396565b92915050565b600081519050919050565b600082825260208201905092915050565b60005b838110156123fa5780820151818401526020810190506123df565b60008484015250505050565b6000612411826123c0565b61241b81856123cb565b935061242b8185602086016123dc565b61243481612082565b840191505092915050565b600060208201905081810360008301526124598184612406565b905092915050565b6000819050919050565b61247481612461565b811461247f57600080fd5b50565b6000813590506124918161246b565b92915050565b6000602082840312156124ad576124ac612015565b5b60006124bb84828501612482565b91505092915050565b6124cd8161203f565b82525050565b60006020820190506124e860008301846124c4565b92915050565b6000806040838503121561250557612504612015565b5b600061251385828601612068565b925050602061252485828601612482565b9150509250929050565b60006020828403121561254457612543612015565b5b600061255284828501612068565b91505092915050565b600060408201905081810360008301526125758185612406565b905061258460208301846124c4565b9392505050565b61259481612461565b82525050565b60006020820190506125af600083018461258b565b92915050565b6000806000606084860312156125ce576125cd612015565b5b60006125dc86828701612068565b93505060206125ed86828701612068565b92505060406125fe86828701612482565b9150509250925092565b6126118161238a565b811461261c57600080fd5b50565b60008135905061262e81612608565b92915050565b6000806040838503121561264b5761264a612015565b5b600061265985828601612068565b925050602061266a8582860161261f565b9150509250929050565b600067ffffffffffffffff82111561268f5761268e612093565b5b61269882612082565b9050602081019050919050565b60006126b86126b384612674565b6120f3565b9050828152602081018484840111156126d4576126d361213f565b5b6126df848285612175565b509392505050565b600082601f8301126126fc576126fb61207d565b5b813561270c8482602086016126a5565b91505092915050565b6000806000806080858703121561272f5761272e612015565b5b600061273d87828801612068565b945050602061274e87828801612068565b935050604061275f87828801612482565b925050606085013567ffffffffffffffff8111156127805761277f61201a565b5b61278c878288016126e7565b91505092959194509250565b600080604083850312156127af576127ae612015565b5b60006127bd85828601612068565b92505060206127ce85828601612068565b9150509250929050565b600080604083850312156127ef576127ee612015565b5b60006127fd85828601612068565b925050602083013567ffffffffffffffff81111561281e5761281d61201a565b5b61282a858286016121c6565b9150509250929050565b7f4e487b7100000000000000000000000000000000000000000000000000000000600052603260045260246000fd5b7f4e487b7100000000000000000000000000000000000000000000000000000000600052602260045260246000fd5b600060028204905060018216806128aa57607f821691505b6020821081036128bd576128bc612863565b5b50919050565b7f464f5242494444454e0000000000000000000000000000000000000000000000600082015250565b60006128f96009836123cb565b9150612904826128c3565b602082019050919050565b60006020820190508181036000830152612928816128ec565b9050919050565b600060608201905061294460008301866124c4565b612951602083018561258b565b61295e60408301846124c4565b949350505050565b7f4e487b7100000000000000000000000000000000000000000000000000000000600052601160045260246000fd5b60006129a082612461565b91506129ab83612461565b92508282039050818111156129c3576129c2612966565b5b92915050565b7f4f6e6c792061646d696e2063616e207769746864726177206665657300000000600082015250565b60006129ff601c836123cb565b9150612a0a826129c9565b602082019050919050565b60006020820190508181036000830152612a2e816129f2565b9050919050565b600081905092915050565b50565b6000612a50600083612a35565b9150612a5b82612a40565b600082019050919050565b6000612a7182612a43565b9150819050919050565b7f4661696c656420746f2073656e64206665657300000000000000000000000000600082015250565b6000612ab16013836123cb565b9150612abc82612a7b565b602082019050919050565b60006020820190508181036000830152612ae081612aa4565b9050919050565b600081905092915050565b6000612afd826123c0565b612b078185612ae7565b9350612b178185602086016123dc565b80840191505092915050565b6000612b2f8285612af2565b9150612b3b8284612af2565b91508190509392505050565b7f4e6f2072652d656e7472616e6379000000000000000000000000000000000000600082015250565b6000612b7d600e836123cb565b9150612b8882612b47565b602082019050919050565b60006020820190508181036000830152612bac81612b70565b9050919050565b7f496e73756666696369656e742066656500000000000000000000000000000000600082015250565b6000612be96010836123cb565b9150612bf482612bb3565b602082019050919050565b60006020820190508181036000830152612c1881612bdc565b9050919050565b60008190508160005260206000209050919050565b60006020601f8301049050919050565b600082821b905092915050565b600060088302612c817fffffffffffffffffffffffffffffffffffffffffffffffffffffffffffffffff82612c44565b612c8b8683612c44565b95508019841693508086168417925050509392505050565b6000819050919050565b6000612cc8612cc3612cbe84612461565b612ca3565b612461565b9050919050565b6000819050919050565b612ce283612cad565b612cf6612cee82612ccf565b848454612c51565b825550505050565b600090565b612d0b612cfe565b612d16818484612cd9565b505050565b5b81811015612d3a57612d2f600082612d03565b600181019050612d1c565b5050565b601f821115612d7f57612d5081612c1f565b612d5984612c34565b81016020851015612d68578190505b612d7c612d7485612c34565b830182612d1b565b50505b505050565b600082821c905092915050565b6000612da260001984600802612d84565b1980831691505092915050565b6000612dbb8383612d91565b9150826002028217905092915050565b612dd4826123c0565b67ffffffffffffffff811115612ded57612dec612093565b5b612df78254612892565b612e02828285612d3e565b600060209050601f831160018114612e355760008415612e23578287015190505b612e2d8582612daf565b865550612e95565b601f198416612e4386612c1f565b60005b82811015612e6b57848901518255600182019150602085019450602081019050612e46565b86831015612e885784890151612e84601f891682612d91565b8355505b6001600288020188555050505b505050505050565b600081549050612eac81612892565b9050919050565b818103612ec1575050612f99565b612eca82612e9d565b67ffffffffffffffff811115612ee357612ee2612093565b5b612eed8254612892565b612ef8828285612d3e565b6000601f831160018114612f275760008415612f15578287015490505b612f1f8582612daf565b865550612f92565b601f198416612f3587612c1f565b9650612f4086612c1f565b60005b82811015612f6857848901548255600182019150600185019450602081019050612f43565b86831015612f855784890154612f81601f891682612d91565b8355505b6001600288020188555050505b5050505050505b565b6000612fa682612461565b91507fffffffffffffffffffffffffffffffffffffffffffffffffffffffffffffffff8203612fd857612fd7612966565b5b600182019050919050565b600081519050919050565b600082825260208201905092915050565b600061300a82612fe3565b6130148185612fee565b93506130248185602086016123dc565b61302d81612082565b840191505092915050565b600060808201905061304d60008301876124c4565b61305a60208301866124c4565b613067604083018561258b565b81810360608301526130798184612fff565b905095945050505050565b60008151905061309381612331565b92915050565b6000602082840312156130af576130ae612015565b5b60006130bd84828501613084565b91505092915050565b7f4e487b7100000000000000000000000000000000000000000000000000000000600052601260045260246000fd5b600060408201905061310a60008301856124c4565b613117602083018461258b565b939250505056fea2646970667358221220510a78561d49cd24ee0dbb116b6c84f429efac71318571ba3ca4884c3143db3d64736f6c63430008140033",
  "linkReferences": {},
  "deployedLinkReferences": {}
}